:0A35C30000000000000000000022DC
:1035A600D293D2921235C3C2931235C3C292023558
:0135B600C351
:0C35B700D292C2931235C3D2930235C3E6
:1034FC00E4FFFED2921235C33093160FBF00010EBB
:10350C00D3EF94FAEE940040EF1235B77E007F01B2
:09351C0022C2921235C3E4FEFF45
:013525002283
:10355000E4FEC2920000EF30E704D2938002C293EF
:103560000000D2920000C292EF25E0FF0EEEB408F8
:01357000E179
:013571002237
:10352600C2B0122A7D1235D6900021E0B40104E41F
:10353600F080069000217401F01234CF123364EF4C
:0A3546006003122B521233B080DE36
:1033B0007F01900020E064017039FE74252EF582B3
:1033C000E43400F583E0FD741A2EF582E43400F550
:1033D00083E06D6004E4FF80050EEEB404DDEFB41D
:1033E000011190001EE0700BA3E07007900021F027
:0333F000122CEBB1
:0133F30022B7
:1000030000000000000000000000000000000000ED
:10001300000000F800000000000000333000000082
:1000230000100C06100C0600000000000000000089
:1000330040C07840C0784000043F04043F040400FB
:10004300007088FC08300000001820FF211E00000B
:10005300F008F000E018000000211C031E211E0020
:1000630000F00888700000001E21232419272110A6
:1000730010160E0000000000000000000000000049
:10008300000000E0180402000000000718204000F0
:1000930000020418E00000000040201807000000E0
:1000A300404080F0804040000202010F0102020044
:1000B300000000F0000000000101011F0101010028
:1000C300000000000000000080B07000000000008D
:1000D3000000000000000000000101010101010116
:1000E30000000000000000000030300000000000AD
:1000F3000000000080601804006018060100000082
:1001030000E010080810E000000F102020100F007E
:10011300001010F8000000000020203F2020000005
:10012300007008080888700000302824222130005D
:1001330000300888884830000018202020110E0065
:100143000000C02010F8000000070424243F24000E
:1001530000F80888880808000019212020110E00E3
:1001630000E0108888180000000F112020110E00F5
:1001730000380808C83808000000003F00000000ED
:100183000070880808887000001C222121221C00AE
:1001930000E010080810E0000000312222110F00D7
:1001A300000000C0C000000000000030300000006C
:1001B30000000080000000000000806000000000DC
:1001C30000008040201008000001020408102000F5
:1001D3004040404040404000040404040404040040
:1001E30000081020408000000020100804020100D5
:1001F300007048080808F0000000003036010000D5
:10020300C030C828E810E0000718272423140B0087
:100213000000C038E0000000203C23020227382001
:1002230008F8888888700000203F202020110E00E5
:10023300C0300808080838000718202020100800DC
:1002430008F808080810E000203F202020100F00C5
:1002530008F88888E8081000203F20202320180091
:1002630008F88888E8081000203F200003000000F9
:10027300C03008080838000007182020221E02009A
:1002830008F808000008F808203F210101213F2059
:10029300000808F8080800000020203F2020000084
:1002A30000000808F8080800C08080807F00000074
:1002B30008F888C028180800203F200126382000AD
:1002C30008F8080000000000203F20202020300014
:1002D30008F8F800F8F80800203F003F003F20002E
:1002E30008F830C00008F808203F200007183F0036
:1002F300E01008080810E0000F10202020100F0065
:1003030008F808080808F000203F21010101000057
:10031300E01008080810E0000F18242438504F009C
:1003230008F8888888887000203F2000030C30205C
:1003330000708808080838000038202121221C009A
:10034300180808F8080818000000203F20000000E3
:1003530008F808000008F808001F202020201F00CC
:100363000878880000C83808000007380E0100002C
:10037300F80800F80008F800033C0700073C0300F6
:10038300081868808068180820302C03032C30205C
:100393000838C800C83808000000203F20000000CB
:1003A30010080808C8380800203826212020180023
:1003B300000000FE020202000000007F40404000F7
:1003C300000C30C000000000000000010638C0002F
:1003D30000020202FE000000004040407F000000D7
:1003E30000000402020204000000000000000000FC
:1003F30000000000000000008080808080808080FA
:1004030000020204000000000000000000000000E1
:1004130000008080808000000019242222223F20D7
:1004230008F8008080000000003F112020110E001A
:100433000000008080800000000E112020201100A9
:10044300000000808088F800000E112020103F205B
:100453000000808080800000001F222222221300DF
:10046300008080F0888888180020203F202000002A
:100473000000808080808000006B949494936000DF
:1004830008F8008080800000203F210000203F20EA
:1004930000809898000000000020203F20200000EA
:1004A300000000809898000000C08080807F0000DA
:1004B30008F8000080808000203F24022D302000B7
:1004C300000808F8000000000020203F2020000062
:1004D3008080808080808000203F20003F20003F7C
:1004E3008080008080800000203F210000203F208A
:1004F3000000808080800000001F202020201F003B
:10050300808000808000000080FFA12020110E0069
:100513000000008080808000000E112020A0FF805A
:10052300808080008080800020203F212000010007
:10053300000080808080800000332424242419005C
:10054300008080E0808000000000001F2020000069
:100553008080000000808000001F202020103F20AA
:10056300808080000080808000010E30080601003A
:1005730080800080008080800F300C030C300F00DF
:1005830000808000808080000020312E0E3120000A
:10059300808080000080808080818E70180601003A
:1005A30000808080808080000021302C2221300058
:1005B30000000000807C020200000000003F404079
:1005C30000000000FF00000000000000FF0000002A
:1005D3000002027C800000000040403F0000000059
:1005E30000060101020204040000000000000000F4
:1005F300080C0E0F0E0C08000000000000000000A5
:100603000000008080C0C0C0C0C0C0C080800000A7
:1006130000000000000000000000000000000000D7
:10062300E0FCFFFF070301000000010307FFFFFCDD
:1006330000000000000000000000000000000000B7
:100643000FFFFFFFC000000000000000C0FFFFFF1E
:100653000000000000000000000000000000000097
:100663000000010307070E0E0E0E0E07070301001D
:100673000000000000000000000000000000000077
:10068300000000000000000080C0C0000000000067
:100693000000000000000000000000000000000057
:1006A30000000006060606FFFFFFFF000000000033
:1006B3000000000000000000000000000000000037
:1006C30000000000000000FFFFFFFF00000000002B
:1006D3000000000000000000000000000000000017
:1006E300000000000000000F0F0F0F0000000000CB
:1006F30000000000000000000000000000000000F7
:10070300000000008080C0C0C0C0C0C08080000066
:1007130000000000000000000000000000000000D6
:1007230000003E3F3F070101000081C3FFFFFF1CA4
:1007330000000000000000000000000000000000B6
:10074300000080C0E0F0787C3E1F0F07030100002B
:100753000000000000000000000000000000000096
:10076300000F0F0F0F0F0E0E0E0E0E0E0E0E0E0EAF
:100773000000000000000000000000000000000076
:10078300000000008080C0C0C0C0C0C080800000E6
:100793000000000000000000000000000000000056
:1007A30000000E0F0F030180808081C3FFFF7F00D5
:1007B3000000000000000000000000000000000036
:1007C30000E0E0E08000000303030307DEFEFCF823
:1007D3000000000000000000000000000000000016
:1007E3000000030307070E0E0E0E0E070707030094
:1007F30000000000000000000000000000000000F6
:1008030000000000000000000080C0C0C0C0000065
:1008130000000000000000000000000000000000D5
:1008230000000080C0E0F83C1F0FFFFFFFFF000047
:1008330000000000000000000000000000000000B5
:10084300787C7E7F777170707070FFFFFFFF707030
:100853000000000000000000000000000000000095
:10086300000000000000000000000F0F0F0F000049
:100873000000000000000000000000000000000075
:10088300000000C0C0C0C0C0C0C0C0C0C0C0C00065
:100893000000000000000000000000000000000055
:1008A3000000FCFFFFC1E161616161E1C1C1810041
:1008B3000000000000000000000000000000000035
:1008C30000E0E1E1C101000000000000E7FFFF7E5E
:1008D3000000000000000000000000000000000015
:1008E3000000010307070E0E0E0E0E07070301009B
:1008F30000000000000000000000000000000000F5
:10090300000000000080C0C0C0C0C0C080800000E4
:1009130000000000000000000000000000000000D4
:1009230000E0FCFEFF87C1C1E0E0E1C1CF8F0F0C07
:1009330000000000000000000000000000000000B4
:10094300003FFFFFFF83000000000001FFFFFF7C6B
:100953000000000000000000000000000000000094
:100963000000000307070E0E0C0C0E07070301001F
:100973000000000000000000000000000000000074
:100983000000C0C0C0C0C0C0C0C0C0C0C0C0C0C0E4
:100993000000000000000000000000000000000054
:1009A30000000101010101010101C1F9FF7F0F01F4
:1009B3000000000000000000000000000000000034
:1009C30000000000000000C0F8FE3F0F010000001F
:1009D3000000000000000000000000000000000014
:1009E3000000000000080F0F0F01000000000000CE
:1009F30000000000000000000000000000000000F4
:100A03000000000080C0C0C0C0C0C0C080000000A3
:100A130000000000000000000000000000000000D3
:100A230000007EFFFFC38100000081C3FFFF7E0043
:100A330000000000000000000000000000000000B3
:100A430000F8FCFE8E070303030303078EFEFCF886
:100A53000000000000000000000000000000000093
:100A630000010307070E0E0C0C0C0E0E0707030103
:100A73000000000000000000000000000000000073
:100A83000000000080C0C0C0C0C0C0808000000063
:100A93000000000000000000000000000000000053
:100AA30000F8FEFFFF03010000000103FFFFFCF05D
:100AB3000000000000000000000000000000000033
:100AC30000C0C3C7C70E0E0C0C0C0683FDFFFF1F2F
:100AD3000000000000000000000000000000000013
:100AE30000000307070E0E0E0E0E0707030100009A
:100AF30000000000000000000000000000000000F3
:100B030000000000000000000000000000000000E2
:100B130000000000000000000000000000000000D2
:100B2300000000000000060F0F0600000000000098
:100B330000000000000000000000000000000000B2
:100B430000000000000060F0F06000000000000002
:100B53000000000000000000000000000000000092
:100B63000000000000000000000000000000000082
:100B73000000000000000000000000000000000072
:100B83000000000000000000000000000000000062
:100B93000000000000000000000000000000000052
:100BA3000000000000000000000000000000000042
:100BB3000000000000000000000000000000000032
:100BC3000000000000000000000000000000000022
:100BD3000000000000000000000000000000000012
:100BE3000000000000000000000000000000000002
:100BF30000000000000000000000000000000000F2
:100C03000000000080808080808080808000000061
:100C130000000000000000000000000000000000D1
:100C230000FCFE7C0101010101010101017E7FFE47
:100C330000000000000000000000000000000000B1
:100C430000FEFCFC0000000000000000007CFE7EB3
:100C53000000000000000000000000000000000091
:100C63000000010203030303030303030300000063
:100C73000000000000000000000000000000000071
:100C830000000000000000000080000000000000E1
:100C93000000000000000000000000000000000051
:100CA300000000000000007EFFFF000000000000C5
:100CB3000000000000000000000000000000000031
:100CC30000000000000000FCFEFE00000000000029
:100CD3000000000000000000000000000000000011
:100CE30000000000000000000103000000000000FD
:100CF30000000000000000000000000000000000F1
:100D030000000080808080808080808080000000E0
:100D130000000000000000000000000000000000D0
:100D2300000001818181818181818181817CFEFC3F
:100D330000000000000000000000000000000000B0
:100D4300007EFE7D0101010101010101010100009D
:100D53000000000000000000000000000000000090
:100D6300000000030303030303030303030202005E
:100D73000000000000000000000000000000000070
:100D830000008080808080808080808080000000E0
:100D93000000000000000000000000000000000050
:100DA300000000818181818181818181FDFEFC00C0
:100DB3000000000000000000000000000000000030
:100DC3000000010101010101010101017DFF7E001C
:100DD3000000000000000000000000000000000010
:100DE30000000203030303030303030303000000E0
:100DF30000000000000000000000000000000000F0
:100E0300000000000000000000000000000000805F
:100E130000000000000000000000000000000000CF
:100E230000FFFFFE8080808080808080807EFFFFC7
:100E330000000000000000000000000000000000AF
:100E430000000001010101010101010101FDFEFE9C
:100E5300000000000000000000000000000000008F
:100E6300000000000000000000000000000001037B
:100E7300000000000000000000000000000000006F
:100E830000000080808080808080808080800000DF
:100E9300000000000000000000000000000000004F
:100EA30000FCFEFD818181818181818181000000BF
:100EB300000000000000000000000000000000002F
:100EC300000000010101010101010101017DFE7E1C
:100ED300000000000000000000000000000000000F
:100EE30000000203030303030303030303000000DF
:100EF30000000000000000000000000000000000EF
:100F0300000000808080808080808080808000005E
:100F130000000000000000000000000000000000CE
:100F230000FCFEFD8181818181818181810000003E
:100F330000000000000000000000000000000000AE
:100F430000FEFEFD0101010101010101017DFE7EA3
:100F5300000000000000000000000000000000008E
:100F63000000000003030303030303030300000063
:100F7300000000000000000000000000000000006E
:100F8300008080808080808080808080800000005E
:100F9300000000000000000000000000000000004E
:100FA30000000101010101010101017CFEFF0000BC
:100FB300000000000000000000000000000000002E
:100FC3000000000000000000000000FCFEFE000026
:100FD300000000000000000000000000000000000E
:100FE30000000000000000000000000001030000FA
:100FF30000000000000000000000000000000000EE
:10100300000000008080808080808080800000005D
:1010130000000000000000000000000000000000CD
:1010230000FCFEFC8181818181818181817E7FFE43
:1010330000000000000000000000000000000000AD
:1010430000FEFCFD0101010101010101017DFF7EA3
:10105300000000000000000000000000000000008D
:10106300000001020303030303030303030000005F
:10107300000000000000000000000000000000006D
:1010830000000000808080808080808080000000DD
:10109300000000000000000000000000000000004D
:1010A30000FCFEFC8181818181818181817CFEFC48
:1010B300000000000000000000000000000000002D
:1010C300000000010101010101010101017DFE7E1A
:1010D300000000000000000000000000000000000D
:1010E30000000203030303030303030303000000DD
:1010F30000000000000000000000000000000000ED
:1011030000000000000000000000000000000000DC
:1011130000000000000000000000000000000000CC
:10112300000000000000060F0F0600000000000092
:1011330000000000000000000000000000000000AC
:1011430000000000000060F0F060000000000000FC
:10115300000000000000000000000000000000008C
:10116300000000000000000000000000000000007C
:10117300000000000000000000000000000000006C
:10118300000000000000000000000000000000005C
:10119300000000000000000000000000000000004C
:1011A300000000000000000000000000000000003C
:1011B300000000000000000000000000000000002C
:1011C300000000000000000000000000000000001C
:1011D300000000000000000000000000000000000C
:1011E30000000000000000000000000000000000FC
:1011F30000000000000000000000000000000000EC
:101203000000007C54545454545454547C00000043
:1012130000000000000000000000000000000000CB
:1012230000C8C6D3D3D2D2FFFFD2D2D2D2C2C0001B
:1012330000000000000000000000000000000000AB
:101243000008FEFE4848FEFE0800FC444444FC003F
:10125300000000000000000000000000000000008B
:1012630000643F17050D1767E43C0F0202427F003D
:10127300000000000000000000000000000000006B
:10128300008080808080808080808080808080005B
:10129300000000000000000000000000000000004B
:1012A300000101010101010101010101010101002D
:1012B300000000000000000000000000000000002B
:1012C300000010101010101010101010100000006B
:1012D300000000000000000000000000000000000B
:1012E300003030303030303030303030303030005B
:1012F30000000000000000000000000000000000EB
:10130300000008888888888888888888880800007A
:1013130000000000000000000000000000000000CA
:1013230000202021212121212121212121202000F0
:1013330000000000000000000000000000000000AA
:101343000000FC040484FC0404FC040404FC00000A
:10135300000000000000000000000000000000008A
:1013630000007F242623202020232222227F000026
:10137300000000000000000000000000000000006A
:1013830000000C8C8C8CECFC8C8C8C8C0C0C00007A
:10139300000000000000000000000000000000004A
:1013A3000060202020303F202020203F20202000EC
:1013B300000000000000000000000000000000002A
:1013C300006060606060646C7860606060606000B2
:1013D300000000000000000000000000000000000A
:1013E300000060301C0702000000070E18700000A8
:1013F30000000000000000000000000000000000EA
:10140300000000FEFE86868686868686FE00000035
:1014130000000000000000000000000000000000C9
:101423000000007F7F303030303030307F000000EC
:1014330000000000000000000000000000000000A9
:10144300000000FC84B4B4FCFCB4B48404FC0000CD
:101453000000000000000000000000000000000089
:1014630000603E03001E121212125E40407F000015
:101473000000000000000000000000000000000069
:101483004046CC08C0603C0404047C40404000005B
:101493000000000000000000000000000000000049
:1014A30000007FB09841472D31396D4340C00000A3
:1014B3000000000000000000000000000000000029
:1014C300005C5CD4D4DCF4F4DCD4D4D45C00000041
:1014D3000000000000000000000000000000000009
:1014E3004040407F5A5A5A5A5A5A7F40404000005F
:1014F30000000000000000000000000000000000E9
:10150300F8F88888F80030B0303030FE3030000012
:1015130000000000000000000000000000000000C8
:101523003F3F08081F0000010340407F0000000008
:1015330000000000000000000000000000000000A8
:10154300F0F0060CE020242424E40404FC00000052
:101553000000000000000000000000000000000088
:101563007F7F00000F090909090F00407F00000079
:101573000000000000000000000000000000000068
:101583000000FEFE86868686868686FE00000000B4
:101593000000000000000000000000000000000048
:1015A30000007F7F303030303030307F000000006B
:1015B3000000000000000000000000000000000028
:1015C30008FEFE4848FEFE0800FC444444FC0000BC
:1015D3000000000000000000000000000000000008
:1015E300643F17050D1767E43C0F0202427F0000BA
:1015F30000000000000000000000000000000000E8
:10160300F0F206242024FCF424242404FCFC00002F
:1016130000000000000000000000000000000000C7
:10162300FFFF001F01017F7F11111F407F7F00001B
:1016330000000000000000000000000000000000A7
:101643006078DE505000F01010FE1010F0F0000033
:101653000000000000000000000000000000000087
:1016630002027F2232000F0404FF84040F0F0000E4
:101673000000000000000000000000000000000067
:10168300808080808080808090A0E0C0C0808000C7
:101693000000000000000000000000000000000047
:1016A300000000000000000004020301010000002C
:1016B3000000000000000000000000000000000027
:1016C3000000000000000000000000000000000017
:1016D3000000000000000000000000000000000007
:1016E30000000000000000000000000000000000F7
:1016F30000000000000000000000000000000000E7
:101703000080848484FCFC848484FC84848480003E
:1017130000000000000000000000000000000000C6
:1017230000414161311F030101017F0101010100FA
:1017330000000000000000000000000000000000A6
:1017430000003030303E38F0F0383E3030300000AA
:101753000000000000000000000000000000000086
:101763000042424222321A0F071A12326262020008
:101773000000000000000000000000000000000066
:10178300000000000000000000008070080000005E
:101793000000000000000000000000000000000046
:1017A300000000000002060C101C030000000000F3
:1017B3000000000000000000000000000000000026
:1017C3000018FC7E1E080CFCFC0C081E76FC18009E
:1017D3000000000000000000000000000000000006
:1017E3000000076C38202061612121396C0700005B
:1017F30000000000000000000000000000000000E6
:10180300002020FEFE2000909E94F09C9690900075
:1018130000000000000000000000000000000000C5
:10182300000C037F7F030A080808FF080808080064
:1018330000000000000000000000000000000000A5
:1018430000101010101010103EFE10141C10100089
:101853000000000000000000000000000000000085
:10186300002061213F3F111110031E3060407000C2
:101873000000000000000000000000000000000065
:10188300000000FC0424C48484740404FC000000ED
:101893000000000000000000000000000000000045
:1018A30000E03E0310180C07071C10003F60700097
:1018B3000000000000000000000000000000000025
:1018C300001090FEFEB040301C6CC8C838180000F1
:1018D3000000000000000000000000000000000005
:1018E300000C03FFFF0102FEFD252425257F0200D6
:1018F30000000000000000000000000000000000E5
:101903000004040404C464F40C44C4840404040004
:1019130000000000000000000000000000000000C4
:10192300000406030100007F00000001030600001D
:1019330000000000000000000000000000000000A4
:10194300000000FCB4B4B4B4B4B4B4B4FC000000FC
:101953000000000000000000000000000000000084
:101963000040465C507F7F40407F407058444000B9
:101973000000000000000000000000000000000064
:101983000040404444444444C44444444440C000AC
:101993000000000000000000000000000000000044
:1019A3000020301C0602C0407F0000060C300000FF
:1019B3000000000000000000000000000000000024
:1019C300004048C4FC444480F010FE001030600026
:1019D3000000000000000000000000000000000004
:1019E30000180E03FF014641402033180C07000086
:1019F30000000000000000000000000000000000E4
:101A03000090DC78FEFE589C90F81E1090F01000B9
:101A130000000000000000000000000000000000C3
:101A230000024A4E33321A2641612E182F404000DD
:101A330000000000000000000000000000000000A3
:101A4300004060388C8E8888F8F888888888000081
:101A53000000000000000000000000000000000083
:101A6300000808080F080808FFFF0808080808000E
:101A73000000000000000000000000000000000063
:101A8300008060F80680C0B08C80808EB8C0800073
:101A93000000000000000000000000000000000043
:101AA3000000007F014160301F0040407F000100C3
:101AB3000000000000000000000000000000000023
:101AC300000038084848484E4CC8C8480838380011
:101AD3000000000000000000000000000000000003
:101AE300000404040404C4447F050404040404003F
:101AF30000000000000000000000000000000000E3
:101B0300008060FC04101090F0FE30D01010100024
:101B130000000000000000000000000000000000C2
:101B23000001007F080C060B087F08090B040C005A
:101B330000000000000000000000000000000000A2
:101B4300004858C0FE505C08FC64646464FC0000F8
:101B53000000000000000000000000000000000082
:101B630000180E03FF0246487F464646467F400064
:101B73000000000000000000000000000000000062
:101B8300008060FC04101090F0FE30D010101000A4
:101B93000000000000000000000000000000000042
:101BA3000001007F080C060B087F08090B040C00DA
:101BB3000000000000000000000000000000000022
:101BC30000101092DE308020A0202020FE20200074
:101BD3000000000000000000000000000000000002
:101BE300000603017F020705000744C07F000000D1
:101BF30000000000000000000000000000000000E2
:101C0300006058CE6030506022FE20A4AC9080006B
:101C130000000000000000000000000000000000C1
:101C2300002426351414434121371D3966426000D0
:101C330000000000000000000000000000000000A1
:101C43000090DC78FEFE589C90F81E1090F0100077
:101C53000000000000000000000000000000000081
:101C630000024A4E33321A2641612E182F4040009B
:101C73000000000000000000000000000000000061
:101C83000004C4FC44C40404F4140404FC0400006D
:101C93000000000000000000000000000000000041
:101CA30000033F3F183F0008090909C949790F009C
:101CB3000000000000000000000000000000000021
:101CC3000004040474545456545454740404040017
:101CD3000000000000000000000000000000000001
:101CE3000007C343633B0B0B0B7B7B4343436700FF
:101CF30000000000000000000000000000000000E1
:101D03000000F8084848F8484E4848F8484800009A
:101D130000000000000000000000000000000000C0
:101D230000603F0084444D5D3525554D4440C0005F
:101D330000000000000000000000000000000000A0
:101D4300004044CC080000FCA4A4FCA4A404FC00B0
:101D53000000000000000000000000000000000080
:101D63000000003F186C3C07001E1212DE407F008B
:101D73000000000000000000000000000000000060
:101D8300007474D4FED4D4742430EECAE838080046
:101D93000000000000000000000000000000000040
:101DA300004345447544457D7D5555545445410094
:101DB3000000000000000000000000000000000020
:101DC300FCFCFCFCFCFCFCFCFCFCFCFCFCFCFCFC50
:101DD3000000000000000000000000000000000000
:101DE3003F3F3F3F3F3F3F3F3F3F3F3F3F3F3F3F00
:101DF30000000000000000000000000000000000E0
:101E0300001010FE1000383808EA2E0808083800C1
:101E130000000000000000000000000000000000BF
:101E23000006427F0141414D4F393139276141005D
:101E3300000000000000000000000000000000009F
:101E430000C060F80E02080808F8F80C040400004B
:101E5300000000000000000000000000000000007F
:101E6300000000FF00012121213F3F21212121000A
:101E7300000000000000000000000000000000005F
:101E8300002024A4A4BCA4A6A6ACB4A4A42420002B
:101E9300000000000000000000000000000000003F
:101EA3000040300736764656764646662730600051
:101EB300000000000000000000000000000000001F
:101EC3000030CCCE488CEC9C20A4A4FEA4FC2000C3
:101ED30000000000000000000000000000000000FF
:101EE30000027F3F1AD47C3F604A4A7F4A4A480037
:101EF30000000000000000000000000000000000DF
:101F030000F0F0064C404044C4F4444404FCFC009C
:101F130000000000000000000000000000000000BE
:101F2300007F7F10180C0663203F0000407F3F00B6
:101F3300000000000000000000000000000000009E
:10357200E4FDFCC3ED9FEC9E5015E4FAFB0BBB008F
:0F358200010ABA01F8BB65F50DBD00010C80E42C
:013591002217
:1033F400F583E5822FF582E43583F583E493FF7D3D
:013404004087
:1034050090000FEFF0A3EDF01235A67F781235503E
:103415001234FC900010E0FF1235501234FC90007D
:0C3425000FE0FF1235501234FC0235B7E6
:05331800900004EFF03D
:10331D00E4A3F0900005E0FFC394085039EF24B00A
:10332D00FFE4FD123405E4FD7F10123405E4FDFFCA
:10333D00123405E4900006F0900004E0FF7D401289
:10334D003405900006E004F0E0C3948040EA90005C
:06335D0005E004F080BD54
:013363002247
:06349E00E0FFA3E004FDC5
:1034A40090000EEFF0ED24B0FFE4FD12340590001F
:1034B4000EE054F0C4540F4410FFE4FD12340590A0
:0B34C400000EE0540FFFE4FD02340591
:102A7D007FC87E00123572E4FD7FAE123405E4FD91
:102A8D00FF123405E4FD7F10123405E4FD7F401282
:102A9D003405E4FD7FB0123405E4FD7F8112340569
:102AAD00E4FD7F10123405E4FD7FA1123405E4FD31
:102ABD007FA6123405E4FD7FA8123405E4FD7F3FA7
:102ACD00123405E4FD7FC8123405E4FD7FD31234C2
:102ADD0005E4FDFF123405E4FD7FD5123405E4FD58
:102AED007F80123405E4FD7FD8123405E4FD7F05A7
:102AFD00123405E4FD7FD9123405E4FD7FF1123463
:102B0D0005E4FD7FDA123405E4FD7F12123405E48D
:102B1D00FD7FDB123405E4FD7F30123405E4FD7FCB
:102B2D008D123405E4FD7F14123405E4FD7FA412EB
:102B3D003405E4FD7FA6123405E4FD7FAF123405A4
:052B4D00E4FF02331853
:082E9B0090000AEFF0A3EDF036
:102EA300E4A3F0EB24E0F01234A4E490000DF090DE
:102EB300000DE0FFC39408502590000CE075F0105E
:102EC300A42FF582E435F0F583E5822403F582E54A
:102ED3008334001233FE90000DE004F080D19000A3
:102EE3000A12349EE490000DF090000DE0FFC394AD
:102EF30008502590000CE075F010A42FF582E435FE
:102F0300F0F583E582240BF582E58334001233FE6A
:082F130090000DE004F080D1F4
:012F1B002293
:0B2C2400900006EFF0A3EDF0A3EBF032
:102C2F00E490000BF090000BE0FEC394044003020D
:102C3F002CEA900006E0FFA3E02EFD1234A4E490EE
:102C4F00000AF0900009E07039900008E075F00478
:102C5F00A4FF90000BE07C002FFFEC35F0FEEF7827
:102C6F0005C333CE33CED8F92403F58274063EF56F
:102C7F0083C083C08290000AE0D082D08325821265
:102C8F0033F9900009E064017039900008E075F0A5
:102C9F0004A4FF90000BE07C002FFFEC35F0FEEF5B
:102CAF007805C333CE33CED8F92403F582740C3EA6
:102CBF00F583C083C08290000AE0D082D083258242
:102CCF001233F990000AE004F0E0C39410500302AD
:0B2CDF002C5290000BE004F0022C349B
:012CEA0022C7
:10322300900001EFF0A3EDF0A3EBF0A3EAF0A3E924
:01323300F0AA
:10323400E4A3F0900003E0FBA3E0FAA3E0F9A3E029
:10324400F5827583001231E0FB6026900001E0FFF7
:10325400A3E0FD122E9B900001E02408F0E0D3943B
:10326400784006E4F0A3E004F0900006E004F08067
:01327400C297
:013275002236
:0D308D00900006EBF0900004EFF0A3EDF0D2
:10309A001234A4E4900007F0900007E0FFC39410F4
:1030AA00501B900006E075F040A42403F582E5F079
:1030BA0034121233F4900007E004F080DB9000042D
:1030CA0012349EE4900007F0900007E0FFC39410CA
:1030DA00501B900006E075F040A42423F582E5F029
:0D30EA0034121233F4900007E004F080DB94
:0130F70022B6
:10346A0046001A010203000000480011020002048B
:08347A000001000141001901ED
:0535D600C296C2942220
:05316300E4FDFC7F8E7D
:0A316800900001ECF0A3EDF0AB07BE
:10317200D296E4FD74017E00A805088005C333CE13
:1031820033CED8F9FFEBF582EF558224FF9295D228
:1031920094C2940DEDB408DCE4FD74017E00A80530
:1031A200088005C333CE33CED8F9FF900001E05E2C
:1031B200FEA3E05F4E24FF9295D294C2940DEDB42B
:0431C20008D8C296D1
:0131C60022E6
:022F9C00A90783
:102F9E00E4900004F0A3F0E94401F9D296E4FBFAC0
:102FAE00AF0374017E00A807088005C333CE33CE6D
:102FBE00D8F9FFE9FDEF5D24FF9295C294D2940BF0
:102FCE00BB00010AEB64084A70D6E4FAFBD294C245
:102FDE009430951DAF0374017E00A807088005C3C9
:102FEE0033CE33CED8F9FF900004E04EF0A3E04F7D
:102FFE00F00BBB00010AEB64084A70D1C295C29671
:06300E00900004A3E0FFA6
:013014002299
:1032760012316390001AE075F010A4FFA3E0FDE59B
:10328600F0FCEF4DFD7F8412316890001CE075F074
:1032960010A4FFA3E0FDE5F0FCEF4DFD7F821231A7
:1032A6006890001EE075F010A4FFA3E0FDE5F0FCB9
:1032B600EF4DFD7F801231687D807C007F8E02316C
:0132C600689F
:1032C700123163900013E075F010A4FFA3E0FDE551
:1032D700F0FCEF4DFD7F8C123168900015E075F022
:1032E70010A4FFA3E0FDE5F0FCEF4DFD7F88123150
:1032F70068900017E075F010A4FFA3E0FDE5F0FC6F
:10330700EF4DFD7F861231687D807C007F8E023114
:01331700684D
:10359200123163900019E0FD7F8A1231687D807FCD
:0435A2008E023168FC
:102E18007F8C122F9CAC07EFC4540F900013F0EC7A
:102E2800540FA3F07F88122F9CAC07ECC4540F906A
:102E38000015F0EC540FA3F07F86122F9CAC07EC22
:102E4800C4540F900017F0EC540FA3F07F84122F96
:102E58009CAC07ECC4540F90001AF0EC540FA3F08C
:102E68007F82122F9CAC07ECC4540F90001CF0EC2E
:102E7800540FA3F07F80122F9CAC07ECC4540F9022
:102E8800001EF0EC540FA3F07F8A122F9C900019BB
:022E9800EFF059
:012E9A002215
:1030150020202020202020200020202020202020CB
:103025002020202020202020200041626F75740080
:1030350055736520322A20414120424154004F7288
:103045003A2055736520547970652D43004443201B
:10305500506F77657200507265737320416E7920E9
:103065004B65790056657273696F6E3A20312E3063
:1030750000436F6D70696C6520446174653A003278
:083085003032352E312E3800E7
:1034820041002100410020014400250006030041C3
:0B349200002400410022004100230143
:1034CF00122E18900020E0B4010B7B17E4FDFF12C1
:1034DF00308D122991122632900022E0FF7B06E4F4
:0D34EF00FD12275E7B067D50E4FF0224FAEB
:102B5200E4FF1233187B0AE4FD7F1012308D7B0BE9
:102B6200E4FD7F2012308D7B0CE4FD7F3012308D2E
:102B72007B0DE4FD7F4012308D7B0A7D027F1012B7
:102B8200308D7B0B7D027F2012308D7B0E7D027F8C
:102B92003012308D7B0F7D027F4012308DE4FB7D41
:102BA200027F5012308D7B017D027F6012308D7B5F
:102BB2000A7D047F1012308D7B0B7D047F20123042
:102BC2008D7B107D047F3012308D7B117D047F4020
:102BD20012308D7B187D067F1012308D7B197D0699
:102BE2007F2012308D7B0A7D067F3012308D7B0B69
:102BF2007D067F4012308D7F041230F8EF24FE6094
:102C02000F146011146013240370121223AE800D8E
:102C12001221C18008122F1C8003121F43E4FF02FD
:022C2200331865
:1023AE00E4900000F0FF1233187B0AE4FD7F201248
:1023BE00308D7B0BE4FD7F3012308D7B0CE4FD7F86
:1023CE004012308D7B0DE4FD7F5012308D90000059
:1023DE00E0D3940340030224F67B017A00791A902D
:1023EE0000097404F07D027F2C1229A17BFF7A3044
:1023FE0079157D047F2C123223900000E0FFD394D8
:10240E00014009EF75F008A42434800A900000E022
:10241E0075F008A4242CFF7B7F7D04122E9B1234B2
:10242E0031EF24FE603C1470030224F9240270384C
:10243E00900000E0FF241AF582E43400F583E004F6
:10244E00F0741A2FF582E43400F583E0D39409403A
:10245E0017900000E0241AF582E43400F583E4F0CE
:10246E008006900000E004F090001AE075F00AA4D7
:10247E00FFA3E07C002FFFEC35F0FED3EF9417EEB8
:10248E006480948040047D0180027D00C3EE6480F0
:10249E00948050047F0180027F00EF4D6007E4902E
:1024AE00001AF0A3F090001CE075F00AA4FFA3E060
:1024BE007C002FFFEC35F0FED3EF943BEE6480945E
:1024CE008040047D0180027D00C3EE6480948050C4
:1024DE00047F0180027F00EF4D70030223DBE49046
:0B24EE00001CF0A3F00223DB1232768A
:0124F90022C0
:1021C1009000007402F0E4FF1233187B0AE4FD7FF3
:1021D1001012308D7B0BE4FD7F2012308D7B0EE4DD
:1021E100FD7F3012308D7B0FE4FD7F4012308DE496
:1021F100FBFD7F5012308D7B01E4FD7F6012308D3D
:10220100900000E0D3940840030223A77B027D01E4
:102211007F0112275E7B027D607F011224FA7BFF22
:102221007A30791E7D04E4FF123223900000E0FF32
:10223100B405047E0180027E00EFB404047F0180B6
:10224100027F00EF4E600C900000E075F008A424BE
:1022510008803F900000E0FFB407047E0180027E09
:1022610000EFB406047F0180027F00EF4E600C9006
:102271000000E075F008A424108017900000E0B47D
:1022810008087B7F7D047F77800D900000E075F06A
:1022910008A4FF7B7F7D04122E9B123431EF24FEB4
:1022A10060511470030223AD2402704D900000E0D0
:1022B100FFC39408502E74112FF582E43400F58386
:1022C100E004F074112FF582E43400F583E0D39437
:1022D100094026900000E02411F582E43400F583E2
:1022E100E4F08015900019E004F0E0B4080B7401EB
:1022F100F08006900000E004F0900013E075F00A11
:10230100A4FFA3E07C002FFFEC35F0FED3EF946334
:10231100EE648094804007E4900013F0A3F09000F5
:1023210015E075F00AA4FFA3E07C002FFFEC35F067
:10233100FED3EF940CEE6480948040047D01800212
:102341007D00C3EF9401EE6480948050047F01808E
:10235100027F00EF4D6008E4900015F0A304F090B7
:102361000017E075F00AA4FFA3E07C002FFFEC3515
:10237100F0FED3EF941FEE6480948040047D0180D1
:10238100027D00C3EF9401EE6480948050047F01CC
:1023910080027F00EF4D7003022201E4900017F0EC
:0C23A100A304F00222011232C712359290
:0123AD00220D
:102F1C00E4FF1233187B10E4FD7F1012308D7B110F
:102F2C00E4FD7F2012308D7B0CE4FD7F3012308D60
:102F3C007B0DE4FD7F4012308D7B017A007925906A
:102F4C0000097404F0E4FD7F501229A17B107D026E
:102F5C007F1012308D7B117D027F2012308D9000FE
:102F6C0020E070047B1480027B157D027F301230D0
:102F7C008D7F021230F8EF24FE60060470110228D7
:0F2F8C0078900020E0700304F022E4900020F021
:012F9B002213
:10287800E4900000F0FF1233187B10E4FD7F201273
:10288800308D7B11E4FD7F3012308D7B0CE4FD7FB1
:102898004012308D7B0DE4FD7F5012308D9000008A
:1028A800E0D3940340030229907B017A00792590B4
:1028B80000097404F07D027F2C1229A17BFF7A3075
:1028C80079157D047F2C123223900000E0FFD39409
:1028D800014009EF75F008A42434800A900000E054
:1028E80075F008A4242CFF7B7F7D04122E9B1234E4
:1028F80031EF24FE603C14700302299024027038E2
:10290800900000E0FF2425F582E43400F583E0041C
:10291800F074252FF582E43400F583E0D394094060
:1029280017900000E02425F582E43400F583E4F0F4
:102938008006900000E004F0900025E075F00AA4FD
:10294800FFA3E07C002FFFEC35F0FED3EF9417EEE9
:10295800648094804007E4900025F0A3F09000275D
:10296800E075F00AA4FFA3E07C002FFFEC35F0FE31
:10297800D3EF943BEE6480948050030228A5E49042
:082988000027F0A3F00228A5CE
:012990002224
:101F4300E4FF1233187B0CE4FD7F1012308D7B0D00
:101F5300E4FD7F2012308D7B18E4FD7F3012308D3D
:101F63007B19E4FD7F4012308D7B0AE4FD7F501224
:101F7300308D7B0BE4FD7F6012308D7B0E7D027F05
:101F83001012308D7B0F7D027F2012308D7B187DE8
:101F9300027F3012308D7B197D027F4012308D7BA2
:101FA3000A7D027F5012308D7B0B7D027F601230E1
:101FB3008D7B0C7D047F1012308D7B117D047F207F
:101FC30012308D7B1A7D047F3012308D7B1B7D0494
:101FD3007F4012308D7BFF7A30792F7D067F101280
:101FE30032237F041230F8EF24FE700302207814AA
:101FF30070030220EF1470030221412403600302E3
:1020030021BCE4FF1233187B1DE4FD7F1012308DD9
:102013007B1EE4FD7F2012308D7B1FE4FD7F301299
:10202300308D7B20E4FD7F4012308D7B1C7D027F51
:102033001012308D7B1D7D027F2012308D7B1E7D23
:10204300027F3012308D7B1F7D027F4012308D7BEB
:10205300207D027F5012308D7F021230F8EFB401E1
:10206300059000248071EF640260030221BC90009C
:1020730024F00221BCE4FF1233187B1DE4FD7F1022
:1020830012308D7B1EE4FD7F2012308D7B21E4FD19
:102093007F3012308D7B22E4FD7F4012308D7B1C1C
:1020A3007D027F1012308D7B1D7D027F2012308DCB
:1020B3007B1E7D027F3012308D7B217D027F40129B
:1020C300308D7B227D027F5012308D7F021230F8DB
:1020D300EFB401099000227401F00221BCEF640205
:1020E30060030221BC900022F00221BCE4FF123302
:1020F300187B25E4FD7F1012308D7B26E4FD7F20C5
:1021030012308D7B297D027F1012308D7B2A7D0258
:102113007F2012308D7B267D027F3012308D7F022F
:102123001230F8EFB40108E4900023F00221BCEF71
:10213300640260030221BC90002304F0807BE4FF6F
:102143001233187BFF7A307935E4FDFF1232237B9B
:10215300FF7A3079437D02E4FF1232237BFF7A302A
:1021630079527D04E4FF1232237BFF7A30795B7D61
:1021730006E4FF123223123431E4FF1233187BFFDB
:102183007A307969E4FDFF1232237BFF7A30797666
:102193007D02E4FF1232237BFF7A3079847D04E4ED
:1021A300FF1232237BFF7A30795B7D06E4FF123224
:0E21B30023123431E4FF123318E4FF02331814
:102CEB00900000E4F0A374B4F074FFA3F0A3F0E43D
:102CFB00FF1233187B137D06E4FF12308D7B307D82
:102D0B00067F1012308D7B317D067F2012308D7B3C
:102D1B00327D067F3012308D7B337D067F40123043
:102D2B008D7B157D067F5012308D7B347D067F6049
:102D3B0012308D7B137D067F7012308D7F01123523
:102D4B00CD90000074FFF5F012320D45F060279026
:102D5B00000274FFF5F012320D45F060E4122E18EC
:102D6B001226327B17E4FDFF12308D12299112339C
:102D7B0064EF60DB8000E4FF1235CDE4FF12331803
:012D8B002225
:10275E00900002EDF0A3EBF0900001EFF064016049
:10276E0003022816A3E0FFA3E0FD7B32122E9B90FE
:10277E000002E02408FFA3E0FD7B30122E9B9000A8
:10278E0002E02410FFA3E0FD900013E02430FB12C2
:10279E002E9B900002E02418FFA3E0FD900014E0B1
:1027AE002430FB122E9B900002E02420FFA3E0FDBC
:1027BE007B2F122E9B900002E02428FFA3E0FD90B9
:1027CE000015E02430FB122E9B900002E02430FF17
:1027DE00A3E0FD900016E02430FB122E9B90000229
:1027EE00E02438FFA3E0FD7B2F122E9B900002E029
:1027FE002440FFA3E0FD900017E02430FB122E9B37
:10280E00900002E024488053900001E0705BA3E04A
:10281E00FFA3E0FD900015E02430FB122E9B9000EC
:10282E0002E02408FFA3E0FD900016E02430FB1226
:10283E002E9B900002E02410FFA3E0FD7B2D122EB4
:10284E009B900002E02418FFA3E0FD900017E02407
:10285E0030FB122E9B900002E02420FFA3E0FD909F
:0A286E000018E02430FB122E9B221C
:1024FA00900001EDF0A3EBF0EF600302259190004C
:10250A0001E0FFA3E0FDE4FB12308D900001E0241E
:10251A0010FFA3E0FD7B0112308D900019E014B486
:10252A000700400302263190253F75F003A4C583B6
:10253A0025F0C5837302255402255C022564022511
:10254A006D02257602257F022588900001E024206D
:10255A008078900001E02420807E900001E0242011
:10256A000225F0900001E024200225FE900001E0FF
:10257A00242002260C900001E0242002261A900052
:10258A0001E02420022628900001E0FFA3E0FD7B61
:10259A000912308D900019E014B407004003022696
:1025AA00319025B975F003A4C58325F0C58373025C
:1025BA0025CE0225DC0225EA0225F8022606022695
:1025CA0014022622900001E02410FFA3E0FD7B0202
:1025DA008052900001E02410FFA3E0FD7B038044B9
:1025EA00900001E02410FFA3E0FD7B0480369000F8
:1025FA0001E02410FFA3E0FD7B058028900001E0A4
:10260A002410FFA3E0FD7B06801A900001E024104D
:10261A00FFA3E0FD7B07800C900001E02410FFA3DC
:08262A00E0FD7B0812308D2257
:0A263200900024E0FF900023E0FD7B
:10263C00900005EDF0900004EFF0640160030226B9
:10264C00E690001AE0FB900005E0900009F07D0296
:10265C00E4FF122C2490001BE0FB900005E090009E
:10266C0009F07D027F10122C24900005E0900009E7
:10267C00F07B0A7D027F20122C2490001CE0FB9042
:10268C000005E0900009F07D027F30122C249000B0
:10269C001DE0FB900005E0900009F07D027F4012E8
:1026AC002C24900005E0900009F07B0A7D027F50FD
:1026BC00122C2490001EE0FB900005E0900009F025
:1026CC007D027F60122C2490001FE0FB900005E03F
:1026DC00900009F07D027F708074900004E07071AE
:1026EC0090001AE0FB900005E0900009F07D027F5D
:1026FC0018122C2490001BE0FB900005E0900009C0
:10270C00F07D027F28122C24900021E0900005B46B
:10271C000109E0900009F07B0B8007E0900009F0C4
:10272C007B0A7D027F38122C2490001CE0FB900069
:10273C0005E0900009F07D027F48122C2490001DCA
:10274C00E0FB900005E0900009F07D027F58122C10
:02275C00242235
:102991007B017A0079259000097404F0E4FD7F1031
:1029A100900004EFF0A3EDF0A3EBF0A3EAF0A3E9AC
:1029B100F01231C72430FB122E9B900004E0240852
:1029C100FFA3E0FDA3E0FBA3E0FAA3E0F99000017F
:1029D1001231E02430FB122E9B900004E02410FF02
:1029E100A3E0FD7B3A122E9B900004E02418FFA384
:1029F100E0FDA3E0FBA3E0FAA3E0F99000021231AD
:102A0100E02430FB122E9B900004E02420FFA3E081
:102A1100FDA3E0FBA3E0FAA3E0F99000031231E08B
:102A21002430FB122E9B900009E06406704D90004B
:102A310004E02428FFA3E0FD7B3A122E9B900004C2
:102A4100E02430FFA3E0FDA3E0FBA3E0FAA3E0F95B
:102A51009000041231E02430FB122E9B900004E020
:102A61002438FFA3E0FDA3E0FBA3E0FAA3E0F99083
:0C2A710000051231E02430FB122E9B22E5
:0530F800900000EFF064
:1030FD00A3805E7B13E4FDFF12308D7B137D02E414
:10310D00FF12308D7B137D04E4FF12308D7B137D18
:10311D0006E4FF12308D900001E025E024FEFD7BDA
:10312D0012E4FF12308D123431EF24FE600D146065
:10313D001224027011900001E0FF22900001E004C2
:10314D00F080037F0022900000E0FFA3E0D39F40BA
:06315D00A27401F0809D48
:0935CD00C374019F24FF929022B7
:10336400E4900004F020B3127F0AFE12357220B3F9
:103374000930B3FD9000047401F020B4137F0A7E79
:103384000012357220B40930B4FD9000047402F0C8
:1033940020B5137F0A7E0012357220B50930B5FDC1
:0B33A4009000047401F0900004E0FFB2
:0133AF0022FB
:1034310020B3107F0A7E0012357220B30630B3FD2F
:103441007F012220B4107F0A7E0012357220B4065B
:1034510030B4FD7F022220B5D77F0A7E001235727B
:0934610020B5CD30B5FD7F03223A
:03000000022D8C42
:0C2D8C00787FE4F6D8FD758107022DD396
:1031C700BB010689828A83E0225002E722BBFE0206
:0931D700E32289828A83E4932239
:1031E000BB010CE58229F582E5833AF583E02250A4
:1031F00006E92582F8E622BBFE06E92582F8E222EE
:0D320000E58229F582E5833AF583E4932207
:10320D00A3F8E0C5F025F0F0E58215827002158374
:06321D00E0C838F0E822D1
:102D9800023526E493A3F8E493A34003F68001F2F6
:102DA80008DFF48029E493A3F85407240CC8C3333C
:102DB800C4540F4420C8834004F456800146F6DF0B
:102DC800E4800B010204081020408090346AE47EFD
:102DD800019360BCA3FF543F30E509541FFEE49300
:102DE800A360010ECF54C025E060A840B8E493A3C7
:102DF800FAE493A3F8E493A3C8C582C8CAC583CAF2
:102E0800F0A3C8C582C8CAC583CADFE9DEE780BEA9
:01349D00002E
:00000001FF
